{
  "contractName": "GridEnergyPool",
  "abi": [
    {
      "constant": true,
      "inputs": [
        {
          "name": "",
          "type": "uint256"
        }
      ],
      "name": "energyPool",
      "outputs": [
        {
          "name": "energyId",
          "type": "int32"
        },
        {
          "name": "contributor",
          "type": "address"
        },
        {
          "name": "energyQuantity",
          "type": "int32"
        }
      ],
      "payable": false,
      "stateMutability": "view",
      "type": "function",
      "signature": "0xf7e194f6"
    },
    {
      "constant": true,
      "inputs": [
        {
          "name": "",
          "type": "uint256"
        }
      ],
      "name": "recPool",
      "outputs": [
        {
          "name": "recTokenId",
          "type": "int32"
        },
        {
          "name": "energyId",
          "type": "int32"
        },
        {
          "name": "owner",
          "type": "address"
        },
        {
          "name": "availForTrade",
          "type": "int32"
        }
      ],
      "payable": false,
      "stateMutability": "view",
      "type": "function",
      "signature": "0xfc0bfd98"
    },
    {
      "constant": false,
      "inputs": [
        {
          "name": "_contributor",
          "type": "address"
        },
        {
          "name": "_energyQuantity",
          "type": "int32"
        }
      ],
      "name": "contributeEnergy",
      "outputs": [],
      "payable": false,
      "stateMutability": "nonpayable",
      "type": "function",
      "signature": "0x39d71452"
    },
    {
      "constant": false,
      "inputs": [],
      "name": "incrementEnergySeq",
      "outputs": [],
      "payable": false,
      "stateMutability": "nonpayable",
      "type": "function",
      "signature": "0x131bc2d3"
    },
    {
      "constant": false,
      "inputs": [],
      "name": "incrementRecTokenSeq",
      "outputs": [],
      "payable": false,
      "stateMutability": "nonpayable",
      "type": "function",
      "signature": "0x8689d29d"
    },
    {
      "constant": false,
      "inputs": [],
      "name": "issueREC",
      "outputs": [],
      "payable": false,
      "stateMutability": "nonpayable",
      "type": "function",
      "signature": "0x369e5554"
    },
    {
      "constant": false,
      "inputs": [
        {
          "name": "_recTokenId",
          "type": "int32"
        }
      ],
      "name": "setRECAvailForTrade",
      "outputs": [],
      "payable": false,
      "stateMutability": "nonpayable",
      "type": "function",
      "signature": "0x72f88962"
    },
    {
      "constant": true,
      "inputs": [],
      "name": "displayAvailableREC",
      "outputs": [
        {
          "name": "",
          "type": "int32[]"
        }
      ],
      "payable": false,
      "stateMutability": "view",
      "type": "function",
      "signature": "0xfdd83818"
    },
    {
      "constant": false,
      "inputs": [
        {
          "name": "recOwner",
          "type": "address"
        },
        {
          "name": "amount",
          "type": "uint256"
        }
      ],
      "name": "purchaseREC",
      "outputs": [],
      "payable": true,
      "stateMutability": "payable",
      "type": "function",
      "signature": "0x010e88bb"
    },
    {
      "constant": true,
      "inputs": [],
      "name": "getEnergyPoolSize",
      "outputs": [
        {
          "name": "",
          "type": "uint256"
        }
      ],
      "payable": false,
      "stateMutability": "view",
      "type": "function",
      "signature": "0xa79e11de"
    },
    {
      "constant": true,
      "inputs": [],
      "name": "getRECPoolSize",
      "outputs": [
        {
          "name": "",
          "type": "uint256"
        }
      ],
      "payable": false,
      "stateMutability": "view",
      "type": "function",
      "signature": "0xf0613e39"
    }
  ],
  "bytecode": "0x608060405260646000806101000a81548163ffffffff021916908360030b63ffffffff1602179055506103e8600060046101000a81548163ffffffff021916908360030b63ffffffff1602179055506001805534801561005e57600080fd5b50610d148061006e6000396000f3fe6080604052600436106100af576000357c0100000000000000000000000000000000000000000000000000000000900463ffffffff168063010e88bb146100b4578063131bc2d314610102578063369e55541461011957806339d714521461013057806372f889621461018e5780638689d29d146101cc578063a79e11de146101e3578063f0613e391461020e578063f7e194f614610239578063fc0bfd98146102ce578063fdd8381814610370575b600080fd5b610100600480360360408110156100ca57600080fd5b81019080803573ffffffffffffffffffffffffffffffffffffffff169060200190929190803590602001909291905050506103dc565b005b34801561010e57600080fd5b50610117610416565b005b34801561012557600080fd5b5061012e61044c565b005b34801561013c57600080fd5b5061018c6004803603604081101561015357600080fd5b81019080803573ffffffffffffffffffffffffffffffffffffffff169060200190929190803560030b9060200190929190505050610828565b005b34801561019a57600080fd5b506101ca600480360360208110156101b157600080fd5b81019080803560030b906020019092919050505061096f565b005b3480156101d857600080fd5b506101e1610a0e565b005b3480156101ef57600080fd5b506101f8610a46565b6040518082815260200191505060405180910390f35b34801561021a57600080fd5b50610223610a53565b6040518082815260200191505060405180910390f35b34801561024557600080fd5b506102726004803603602081101561025c57600080fd5b8101908080359060200190929190505050610a60565b604051808460030b60030b81526020018373ffffffffffffffffffffffffffffffffffffffff1673ffffffffffffffffffffffffffffffffffffffff1681526020018260030b60030b8152602001935050505060405180910390f35b3480156102da57600080fd5b50610307600480360360208110156102f157600080fd5b8101908080359060200190929190505050610acf565b604051808560030b60030b81526020018460030b60030b81526020018373ffffffffffffffffffffffffffffffffffffffff1673ffffffffffffffffffffffffffffffffffffffff1681526020018260030b60030b815260200194505050505060405180910390f35b34801561037c57600080fd5b50610385610b51565b6040518080602001828103825283818151815260200191508051906020019060200280838360005b838110156103c85780820151818401526020810190506103ad565b505050509050019250505060405180910390f35b8173ffffffffffffffffffffffffffffffffffffffff166108fc829081150290604051600060405180830381858888f19350505050505050565b60646000809054906101000a900460030b016000806101000a81548163ffffffff021916908360030b63ffffffff160217905550565b60606002805490506040519080825280602002602001820160405280156104825781602001602082028038833980820191505090505b50905060606002805490506040519080825280602002602001820160405280156104bb5781602001602082028038833980820191505090505b50905060606002805490506040519080825280602002602001820160405280156104f45781602001602082028038833980820191505090505b50905060008090505b6002805490508110156108225760028181548110151561051957fe5b9060005260206000200160000160009054906101000a900460030b848281518110151561054257fe5b9060200190602002019060030b908160030b8152505060028181548110151561056757fe5b9060005260206000200160000160049054906101000a900473ffffffffffffffffffffffffffffffffffffffff1683828151811015156105a357fe5b9060200190602002019073ffffffffffffffffffffffffffffffffffffffff16908173ffffffffffffffffffffffffffffffffffffffff16815250506002818154811015156105ee57fe5b9060005260206000200160000160189054906101000a900460030b828281518110151561061757fe5b9060200190602002019060030b908160030b8152505060008090505b828281518110151561064157fe5b9060200190602002015160030b8160030b121561081457610660610c62565b600060049054906101000a900460030b816000019060030b908160030b81525050858381518110151561068f57fe5b90602001906020020151816020019060030b908160030b8152505084838151811015156106b857fe5b90602001906020020151816040019073ffffffffffffffffffffffffffffffffffffffff16908173ffffffffffffffffffffffffffffffffffffffff16815250506000816060019060030b908160030b8152505060038190806001815401808255809150509060018203906000526020600020016000909192909190915060008201518160000160006101000a81548163ffffffff021916908360030b63ffffffff16021790555060208201518160000160046101000a81548163ffffffff021916908360030b63ffffffff16021790555060408201518160000160086101000a81548173ffffffffffffffffffffffffffffffffffffffff021916908373ffffffffffffffffffffffffffffffffffffffff160217905550606082015181600001601c6101000a81548163ffffffff021916908360030b63ffffffff160217905550505050610806610a0e565b508080600101915050610633565b5080806001019150506104fd565b50505050565b610830610caa565b6000809054906101000a900460030b816000019060030b908160030b8152505082816020019073ffffffffffffffffffffffffffffffffffffffff16908173ffffffffffffffffffffffffffffffffffffffff168152505081816040019060030b908160030b8152505060028190806001815401808255809150509060018203906000526020600020016000909192909190915060008201518160000160006101000a81548163ffffffff021916908360030b63ffffffff16021790555060208201518160000160046101000a81548173ffffffffffffffffffffffffffffffffffffffff021916908373ffffffffffffffffffffffffffffffffffffffff16021790555060408201518160000160186101000a81548163ffffffff021916908360030b63ffffffff16021790555050505061096a610416565b505050565b60008090505b600380549050811015610a0a578160030b60038281548110151561099557fe5b9060005260206000200160000160009054906101000a900460030b60030b14156109fd5760016003828154811015156109ca57fe5b90600052602060002001600001601c6101000a81548163ffffffff021916908360030b63ffffffff160217905550610a0a565b8080600101915050610975565b5050565b6064600060049054906101000a900460030b01600060046101000a81548163ffffffff021916908360030b63ffffffff160217905550565b6000600280549050905090565b6000600380549050905090565b600281815481101515610a6f57fe5b906000526020600020016000915090508060000160009054906101000a900460030b908060000160049054906101000a900473ffffffffffffffffffffffffffffffffffffffff16908060000160189054906101000a900460030b905083565b600381815481101515610ade57fe5b906000526020600020016000915090508060000160009054906101000a900460030b908060000160049054906101000a900460030b908060000160089054906101000a900473ffffffffffffffffffffffffffffffffffffffff169080600001601c9054906101000a900460030b905084565b606080600380549050604051908082528060200260200182016040528015610b885781602001602082028038833980820191505090505b50905060008090505b600380549050811015610c5a576001600382815481101515610baf57fe5b90600052602060002001600001601c9054906101000a900460030b60030b1415610c2657600381815481101515610be257fe5b9060005260206000200160000160009054906101000a900460030b8282815181101515610c0b57fe5b9060200190602002019060030b908160030b81525050610c4d565b60008282815181101515610c3657fe5b9060200190602002019060030b908160030b815250505b8080600101915050610b91565b508091505090565b608060405190810160405280600060030b8152602001600060030b8152602001600073ffffffffffffffffffffffffffffffffffffffff168152602001600060030b81525090565b606060405190810160405280600060030b8152602001600073ffffffffffffffffffffffffffffffffffffffff168152602001600060030b8152509056fea165627a7a723058203427df49c6a2963fde28e4a59b6647aa743e85ae57fd6ac5214eebe5c8ca388d0029",
  "source": "// SPDX-License-Identifier: GPL-3.0\r\n    \r\npragma solidity >=0.4.22 <0.9.0;\r\n\r\n\r\n\r\n// contract for maintaining energy data at Grid \r\ncontract GridEnergyPool{\r\n\r\n    // setting the sequence for a energy ID and REC Id\r\n    int32 energyIdSeq = 100;\r\n    int32 recTokenIdSeq = 1000;\r\n\r\n    // set the fixed price of an REC\r\n    uint256 recPrice = 1;\r\n\r\n    // structure for details of the energy available in pool\r\n    struct EnergyDetail {\r\n        int32 energyId; // unique identifier for particular Energy\r\n        address payable contributor; // address of the energy contributor\r\n        int32 energyQuantity; // quantity of Energy\r\n    }\r\n\r\n    // struct for REC info\r\n    struct RECDetail {\r\n        // unique Identifier for REC\r\n        int32 recTokenId;\r\n        // energy Token Id for which the REC is generated\r\n        // would behave like a forgien key to the EnergyDetail struct\r\n        int32 energyId;\r\n        // details on the contributor\r\n        address payable owner;\r\n        // flag to indicate if its available for trading\r\n        // 0 --> not available; 1 --> available\r\n        int32 availForTrade;\r\n    }\r\n\r\n    // creating an Array of EnergyDetails\r\n    EnergyDetail[] public energyPool;\r\n    // creating an Array of RECs\r\n    RECDetail[] public recPool;\r\n\r\n    // adds the energy contributed to the pool\r\n    function contributeEnergy(address payable _contributor, \r\n                                int32 _energyQuantity) public  {\r\n\r\n            \r\n        EnergyDetail memory energyDetailsObj;\r\n        energyDetailsObj.energyId = energyIdSeq;\r\n        energyDetailsObj.contributor = _contributor;\r\n        energyDetailsObj.energyQuantity = _energyQuantity;\r\n\r\n        // add Energy to the pool along with all the details\r\n        energyPool.push(energyDetailsObj);\r\n\r\n        // increment the energy token sequence\r\n        incrementEnergySeq();\r\n\r\n    }\r\n\r\n    // increment energy sequence\r\n    function incrementEnergySeq() public {\r\n        energyIdSeq = energyIdSeq + 100;\r\n    }\r\n\r\n    // increment REC sequence\r\n    function incrementRecTokenSeq() public {\r\n        recTokenIdSeq = recTokenIdSeq + 100;\r\n    }\r\n\r\n    // issue RECs based on the energy contributed\r\n    function issueREC() public {\r\n\r\n        // defining variables to be returned in array\r\n        int32[] memory energyTokenIdList = new int32[](energyPool.length);\r\n        address payable[] memory contributorAddress = new address payable[](energyPool.length);\r\n        int32[] memory energyQuantity = new int32[](energyPool.length);\r\n\r\n        // looping through all the Energy contributed in the pool\r\n        for (uint i = 0; i < energyPool.length; i++) {\r\n            //saving the data in memory array\r\n            energyTokenIdList[i] = energyPool[i].energyId;\r\n            contributorAddress[i] = energyPool[i].contributor;\r\n            energyQuantity[i] = energyPool[i].energyQuantity;\r\n\r\n            // issue REC; 1 REC per 1MWatt of Energy\r\n            for(int32 j = 0; j < energyQuantity[i]; j++) {\r\n                // create a REC and add it to the pool\r\n                RECDetail memory recDetailObj;\r\n                recDetailObj.recTokenId = recTokenIdSeq;\r\n                recDetailObj.energyId = energyTokenIdList[i];\r\n                recDetailObj.owner = contributorAddress[i];\r\n                recDetailObj.availForTrade = 0;\r\n\r\n                // add it to the REC pool\r\n                recPool.push(recDetailObj);\r\n\r\n                // increment the REC token sequence\r\n                incrementRecTokenSeq();\r\n            }\r\n\r\n        }\r\n\r\n    }\r\n\r\n    // set the REC available for trade\r\n    function setRECAvailForTrade(int32 _recTokenId) public {\r\n\r\n        // loop through the REC list and update the available flag for requested REC token\r\n        for(uint j = 0; j < recPool.length; j++) {\r\n            \r\n            // check if the recToken Id matches\r\n            if(recPool[j].recTokenId == _recTokenId) {\r\n                recPool[j].availForTrade = 1;\r\n                break;\r\n            }\r\n\r\n            // no flag updated\r\n            // add logs to let user know\r\n        }\r\n    }\r\n\r\n    // display the available RECs for trading\r\n    function displayAvailableREC() public view returns (int32[] memory) {\r\n\r\n        int32[] memory recTokenIdList = new int32[](recPool.length);\r\n        // loop through the REC list and get those which are available for Trading\r\n        for(uint j = 0; j < recPool.length; j++) {\r\n            \r\n            // filter out all RECs available for trading\r\n            if(recPool[j].availForTrade == 1) {\r\n                recTokenIdList[j] = recPool[j].recTokenId;\r\n            } else {\r\n                recTokenIdList[j] = 0;\r\n            }\r\n\r\n        }\r\n\r\n         // return the list of available RECs\r\n        return (recTokenIdList);\r\n    }\r\n\r\n    // process to purchase REC\r\n    function purchaseREC(address payable recOwner, uint256 amount) payable external{\r\n\r\n        // transfer the price of REC to the owner\r\n        recOwner.send(amount);\r\n\r\n        // update the owner of the REC\r\n        // for(uint j = 0; j < recPool.length; j++) {\r\n            \r\n        //     // get the REC with respect to token\r\n        //     if(recPool[j].recTokenId == _recTokenId) {\r\n        //         recPool[j].owner = buyer;\r\n        //     }\r\n\r\n        // }\r\n    }\r\n\r\n    function getEnergyPoolSize() public view returns (uint256) {\r\n        return energyPool.length;\r\n    }\r\n\r\n    function getRECPoolSize() public view returns (uint256) {\r\n        return recPool.length;\r\n    }\r\n\r\n}\r\n\r\n\r\n",
  "sourcePath": "C:/rec-proj/contracts/GridEnergyPool.sol",
  "compiler": {
    "name": "solc",
    "version": "0.5.0+commit.1d4f565a.Emscripten.clang"
  },
  "schemaVersion": "3.0.1",
  "updatedAt": "2022-01-16T12:37:20.562Z",
  "devdoc": {
    "methods": {}
  },
  "userdoc": {
    "methods": {}
  }
}