{
  "contractName": "RECTrading",
  "abi": [
    {
      "constant": true,
      "inputs": [
        {
          "name": "",
          "type": "uint256"
        }
      ],
      "name": "energyPool",
      "outputs": [
        {
          "name": "energyId",
          "type": "int32"
        },
        {
          "name": "contributor",
          "type": "address"
        },
        {
          "name": "energyQuantity",
          "type": "int32"
        }
      ],
      "payable": false,
      "stateMutability": "view",
      "type": "function"
    },
    {
      "constant": true,
      "inputs": [
        {
          "name": "",
          "type": "uint256"
        }
      ],
      "name": "recPool",
      "outputs": [
        {
          "name": "recTokenId",
          "type": "int32"
        },
        {
          "name": "energyId",
          "type": "int32"
        },
        {
          "name": "owner",
          "type": "address"
        },
        {
          "name": "availForTrade",
          "type": "int32"
        }
      ],
      "payable": false,
      "stateMutability": "view",
      "type": "function"
    },
    {
      "constant": false,
      "inputs": [
        {
          "name": "_contributor",
          "type": "address"
        },
        {
          "name": "_energyQuantity",
          "type": "int32"
        }
      ],
      "name": "contributeEnergy",
      "outputs": [],
      "payable": false,
      "stateMutability": "nonpayable",
      "type": "function"
    },
    {
      "constant": false,
      "inputs": [],
      "name": "incrementEnergySeq",
      "outputs": [],
      "payable": false,
      "stateMutability": "nonpayable",
      "type": "function"
    },
    {
      "constant": false,
      "inputs": [],
      "name": "incrementRecTokenSeq",
      "outputs": [],
      "payable": false,
      "stateMutability": "nonpayable",
      "type": "function"
    },
    {
      "constant": false,
      "inputs": [],
      "name": "issueREC",
      "outputs": [],
      "payable": false,
      "stateMutability": "nonpayable",
      "type": "function"
    },
    {
      "constant": false,
      "inputs": [
        {
          "name": "_recTokenId",
          "type": "int32"
        }
      ],
      "name": "setRECAvailForTrade",
      "outputs": [],
      "payable": false,
      "stateMutability": "nonpayable",
      "type": "function"
    },
    {
      "constant": true,
      "inputs": [],
      "name": "displayAvailableREC",
      "outputs": [
        {
          "name": "",
          "type": "int32[]"
        }
      ],
      "payable": false,
      "stateMutability": "view",
      "type": "function"
    },
    {
      "constant": false,
      "inputs": [
        {
          "name": "recOwner",
          "type": "address"
        }
      ],
      "name": "purchaseREC",
      "outputs": [],
      "payable": true,
      "stateMutability": "payable",
      "type": "function"
    },
    {
      "constant": true,
      "inputs": [],
      "name": "getEnergyPoolSize",
      "outputs": [
        {
          "name": "",
          "type": "uint256"
        }
      ],
      "payable": false,
      "stateMutability": "view",
      "type": "function"
    },
    {
      "constant": true,
      "inputs": [],
      "name": "getRECPoolSize",
      "outputs": [
        {
          "name": "",
          "type": "uint256"
        }
      ],
      "payable": false,
      "stateMutability": "view",
      "type": "function"
    }
  ],
  "bytecode": "0x608060405260646000806101000a81548163ffffffff021916908360030b63ffffffff1602179055506103e8600060046101000a81548163ffffffff021916908360030b63ffffffff1602179055506001805534801561005e57600080fd5b50610d228061006e6000396000f3fe6080604052600436106100af576000357c0100000000000000000000000000000000000000000000000000000000900463ffffffff168063131bc2d3146100b45780632adc08e3146100cb578063369e55541461010f57806339d714521461012657806372f88962146101845780638689d29d146101c2578063a79e11de146101d9578063f0613e3914610204578063f7e194f61461022f578063fc0bfd98146102c4578063fdd8381814610366575b600080fd5b3480156100c057600080fd5b506100c96103d2565b005b61010d600480360360208110156100e157600080fd5b81019080803573ffffffffffffffffffffffffffffffffffffffff169060200190929190505050610408565b005b34801561011b57600080fd5b5061012461045a565b005b34801561013257600080fd5b506101826004803603604081101561014957600080fd5b81019080803573ffffffffffffffffffffffffffffffffffffffff169060200190929190803560030b9060200190929190505050610836565b005b34801561019057600080fd5b506101c0600480360360208110156101a757600080fd5b81019080803560030b906020019092919050505061097d565b005b3480156101ce57600080fd5b506101d7610a1c565b005b3480156101e557600080fd5b506101ee610a54565b6040518082815260200191505060405180910390f35b34801561021057600080fd5b50610219610a61565b6040518082815260200191505060405180910390f35b34801561023b57600080fd5b506102686004803603602081101561025257600080fd5b8101908080359060200190929190505050610a6e565b604051808460030b60030b81526020018373ffffffffffffffffffffffffffffffffffffffff1673ffffffffffffffffffffffffffffffffffffffff1681526020018260030b60030b8152602001935050505060405180910390f35b3480156102d057600080fd5b506102fd600480360360208110156102e757600080fd5b8101908080359060200190929190505050610add565b604051808560030b60030b81526020018460030b60030b81526020018373ffffffffffffffffffffffffffffffffffffffff1673ffffffffffffffffffffffffffffffffffffffff1681526020018260030b60030b815260200194505050505060405180910390f35b34801561037257600080fd5b5061037b610b5f565b6040518080602001828103825283818151815260200191508051906020019060200280838360005b838110156103be5780820151818401526020810190506103a3565b505050509050019250505060405180910390f35b60646000809054906101000a900460030b016000806101000a81548163ffffffff021916908360030b63ffffffff160217905550565b8073ffffffffffffffffffffffffffffffffffffffff166108fc670de0b6b3a76400009081150290604051600060405180830381858888f19350505050158015610456573d6000803e3d6000fd5b5050565b60606002805490506040519080825280602002602001820160405280156104905781602001602082028038833980820191505090505b50905060606002805490506040519080825280602002602001820160405280156104c95781602001602082028038833980820191505090505b50905060606002805490506040519080825280602002602001820160405280156105025781602001602082028038833980820191505090505b50905060008090505b6002805490508110156108305760028181548110151561052757fe5b9060005260206000200160000160009054906101000a900460030b848281518110151561055057fe5b9060200190602002019060030b908160030b8152505060028181548110151561057557fe5b9060005260206000200160000160049054906101000a900473ffffffffffffffffffffffffffffffffffffffff1683828151811015156105b157fe5b9060200190602002019073ffffffffffffffffffffffffffffffffffffffff16908173ffffffffffffffffffffffffffffffffffffffff16815250506002818154811015156105fc57fe5b9060005260206000200160000160189054906101000a900460030b828281518110151561062557fe5b9060200190602002019060030b908160030b8152505060008090505b828281518110151561064f57fe5b9060200190602002015160030b8160030b12156108225761066e610c70565b600060049054906101000a900460030b816000019060030b908160030b81525050858381518110151561069d57fe5b90602001906020020151816020019060030b908160030b8152505084838151811015156106c657fe5b90602001906020020151816040019073ffffffffffffffffffffffffffffffffffffffff16908173ffffffffffffffffffffffffffffffffffffffff16815250506000816060019060030b908160030b8152505060038190806001815401808255809150509060018203906000526020600020016000909192909190915060008201518160000160006101000a81548163ffffffff021916908360030b63ffffffff16021790555060208201518160000160046101000a81548163ffffffff021916908360030b63ffffffff16021790555060408201518160000160086101000a81548173ffffffffffffffffffffffffffffffffffffffff021916908373ffffffffffffffffffffffffffffffffffffffff160217905550606082015181600001601c6101000a81548163ffffffff021916908360030b63ffffffff160217905550505050610814610a1c565b508080600101915050610641565b50808060010191505061050b565b50505050565b61083e610cb8565b6000809054906101000a900460030b816000019060030b908160030b8152505082816020019073ffffffffffffffffffffffffffffffffffffffff16908173ffffffffffffffffffffffffffffffffffffffff168152505081816040019060030b908160030b8152505060028190806001815401808255809150509060018203906000526020600020016000909192909190915060008201518160000160006101000a81548163ffffffff021916908360030b63ffffffff16021790555060208201518160000160046101000a81548173ffffffffffffffffffffffffffffffffffffffff021916908373ffffffffffffffffffffffffffffffffffffffff16021790555060408201518160000160186101000a81548163ffffffff021916908360030b63ffffffff1602179055505050506109786103d2565b505050565b60008090505b600380549050811015610a18578160030b6003828154811015156109a357fe5b9060005260206000200160000160009054906101000a900460030b60030b1415610a0b5760016003828154811015156109d857fe5b90600052602060002001600001601c6101000a81548163ffffffff021916908360030b63ffffffff160217905550610a18565b8080600101915050610983565b5050565b6064600060049054906101000a900460030b01600060046101000a81548163ffffffff021916908360030b63ffffffff160217905550565b6000600280549050905090565b6000600380549050905090565b600281815481101515610a7d57fe5b906000526020600020016000915090508060000160009054906101000a900460030b908060000160049054906101000a900473ffffffffffffffffffffffffffffffffffffffff16908060000160189054906101000a900460030b905083565b600381815481101515610aec57fe5b906000526020600020016000915090508060000160009054906101000a900460030b908060000160049054906101000a900460030b908060000160089054906101000a900473ffffffffffffffffffffffffffffffffffffffff169080600001601c9054906101000a900460030b905084565b606080600380549050604051908082528060200260200182016040528015610b965781602001602082028038833980820191505090505b50905060008090505b600380549050811015610c68576001600382815481101515610bbd57fe5b90600052602060002001600001601c9054906101000a900460030b60030b1415610c3457600381815481101515610bf057fe5b9060005260206000200160000160009054906101000a900460030b8282815181101515610c1957fe5b9060200190602002019060030b908160030b81525050610c5b565b60008282815181101515610c4457fe5b9060200190602002019060030b908160030b815250505b8080600101915050610b9f565b508091505090565b608060405190810160405280600060030b8152602001600060030b8152602001600073ffffffffffffffffffffffffffffffffffffffff168152602001600060030b81525090565b606060405190810160405280600060030b8152602001600073ffffffffffffffffffffffffffffffffffffffff168152602001600060030b8152509056fea165627a7a72305820fb8639e9e45b50677fb0365ff2d59ca64534f793e7aa4992013c344b2cccd7d70029",
  "source": "// SPDX-License-Identifier: GPL-3.0\r\n    \r\npragma solidity >=0.4.22 <0.9.0;\r\n\r\n\r\n\r\n// contract for maintaining energy data at Grid \r\ncontract RECTrading{\r\n\r\n    // setting the sequence for a energy ID and REC Id\r\n    int32 energyIdSeq = 100;\r\n    int32 recTokenIdSeq = 1000;\r\n\r\n    // set the fixed price of an REC\r\n    uint256 recPrice = 1;\r\n\r\n    // structure for details of the energy available in pool\r\n    struct EnergyDetail {\r\n        int32 energyId; // unique identifier for particular Energy\r\n        address payable contributor; // address of the energy contributor\r\n        int32 energyQuantity; // quantity of Energy\r\n    }\r\n\r\n    // struct for REC info\r\n    struct RECDetail {\r\n        // unique Identifier for REC\r\n        int32 recTokenId;\r\n        // energy Token Id for which the REC is generated\r\n        // would behave like a forgien key to the EnergyDetail struct\r\n        int32 energyId;\r\n        // details on the contributor\r\n        address payable owner;\r\n        // flag to indicate if its available for trading\r\n        // 0 --> not available; 1 --> available\r\n        int32 availForTrade;\r\n    }\r\n\r\n    // creating an Array of EnergyDetails\r\n    EnergyDetail[] public energyPool;\r\n    // creating an Array of RECs\r\n    RECDetail[] public recPool;\r\n\r\n    // adds the energy contributed to the pool\r\n    function contributeEnergy(address payable _contributor, \r\n                                int32 _energyQuantity) public  {\r\n\r\n            \r\n        EnergyDetail memory energyDetailsObj;\r\n        energyDetailsObj.energyId = energyIdSeq;\r\n        energyDetailsObj.contributor = _contributor;\r\n        energyDetailsObj.energyQuantity = _energyQuantity;\r\n\r\n        // add Energy to the pool along with all the details\r\n        energyPool.push(energyDetailsObj);\r\n\r\n        // increment the energy token sequence\r\n        incrementEnergySeq();\r\n\r\n    }\r\n\r\n    // increment energy sequence\r\n    function incrementEnergySeq() public {\r\n        energyIdSeq = energyIdSeq + 100;\r\n    }\r\n\r\n    // increment REC sequence\r\n    function incrementRecTokenSeq() public {\r\n        recTokenIdSeq = recTokenIdSeq + 100;\r\n    }\r\n\r\n    // issue RECs based on the energy contributed\r\n    function issueREC() public {\r\n\r\n        // defining variables to be returned in array\r\n        int32[] memory energyTokenIdList = new int32[](energyPool.length);\r\n        address payable[] memory contributorAddress = new address payable[](energyPool.length);\r\n        int32[] memory energyQuantity = new int32[](energyPool.length);\r\n\r\n        // looping through all the Energy contributed in the pool\r\n        for (uint i = 0; i < energyPool.length; i++) {\r\n            //saving the data in memory array\r\n            energyTokenIdList[i] = energyPool[i].energyId;\r\n            contributorAddress[i] = energyPool[i].contributor;\r\n            energyQuantity[i] = energyPool[i].energyQuantity;\r\n\r\n            // issue REC; 1 REC per 1MWatt of Energy\r\n            for(int32 j = 0; j < energyQuantity[i]; j++) {\r\n                // create a REC and add it to the pool\r\n                RECDetail memory recDetailObj;\r\n                recDetailObj.recTokenId = recTokenIdSeq;\r\n                recDetailObj.energyId = energyTokenIdList[i];\r\n                recDetailObj.owner = contributorAddress[i];\r\n                recDetailObj.availForTrade = 0;\r\n\r\n                // add it to the REC pool\r\n                recPool.push(recDetailObj);\r\n\r\n                // increment the REC token sequence\r\n                incrementRecTokenSeq();\r\n            }\r\n\r\n        }\r\n\r\n    }\r\n\r\n    // set the REC available for trade\r\n    function setRECAvailForTrade(int32 _recTokenId) public {\r\n\r\n        // loop through the REC list and update the available flag for requested REC token\r\n        for(uint j = 0; j < recPool.length; j++) {\r\n            \r\n            // check if the recToken Id matches\r\n            if(recPool[j].recTokenId == _recTokenId) {\r\n                recPool[j].availForTrade = 1;\r\n                break;\r\n            }\r\n\r\n            // no flag updated\r\n            // add logs to let user know\r\n        }\r\n    }\r\n\r\n    // display the available RECs for trading\r\n    function displayAvailableREC() public view returns (int32[] memory) {\r\n\r\n        int32[] memory recTokenIdList = new int32[](recPool.length);\r\n        // loop through the REC list and get those which are available for Trading\r\n        for(uint j = 0; j < recPool.length; j++) {\r\n            \r\n            // filter out all RECs available for trading\r\n            if(recPool[j].availForTrade == 1) {\r\n                recTokenIdList[j] = recPool[j].recTokenId;\r\n            } else {\r\n                recTokenIdList[j] = 0;\r\n            }\r\n\r\n        }\r\n\r\n         // return the list of available RECs\r\n        return (recTokenIdList);\r\n    }\r\n\r\n    // process to purchase REC\r\n    function purchaseREC(address payable recOwner) payable external{\r\n\r\n        // transfer the price of REC to the owner\r\n        recOwner.transfer(1 ether);\r\n\r\n        // update the owner of the REC\r\n        // for(uint j = 0; j < recPool.length; j++) {\r\n            \r\n        //     // get the REC with respect to token\r\n        //     if(recPool[j].recTokenId == _recTokenId) {\r\n        //         recPool[j].owner = buyer;\r\n        //     }\r\n\r\n        // }\r\n    }\r\n\r\n    function getEnergyPoolSize() public view returns (uint256) {\r\n        return energyPool.length;\r\n    }\r\n\r\n    function getRECPoolSize() public view returns (uint256) {\r\n        return recPool.length;\r\n    }\r\n\r\n}\r\n\r\n\r\n",
  "sourcePath": "C:/rec-proj/contracts/GridEnergyPool.sol",
  "compiler": {
    "name": "solc",
    "version": "0.5.0+commit.1d4f565a.Emscripten.clang"
  },
  "schemaVersion": "3.0.1",
  "updatedAt": "2022-01-16T11:43:39.370Z",
  "devdoc": {
    "methods": {}
  },
  "userdoc": {
    "methods": {}
  }
}